:030000000210DE0D
:0C10DE00787FE4F6D8FD75813F021125F3
:1013D8004E6F2052656D6F7465004E6F20436D64CB
:1013E8000052454D20256400434D442025640044A7
:0913F800454641554C540000002B
:10134E00011200010E000108FF0113FF0111FF043D
:10135E000A0000000001100001160001150001092D
:10136E0000010F00011400C10FC10DC10AC18EC1D1
:01137E0089E5
:10147300E4FDFCC3ED9FEC9E5015E4FBFA0BBB00AF
:0F148300010AEB64704A70F50DBD00010C80E4A6
:011492002237
:06161500000000000022AD
:0F15E800D2B0D2B1121615C2B0121615C2B1226E
:0815BA001212CFAF031212CF91
:0F15C200C2B1C2B0121615D2B1121615D2B02294
:0712C800AB071215E87F7C63
:1012CF007DE87C03E4FEEF30E703D38001C392B0E7
:1012DF00D2B1121615C2B1EF25E0FF0EBE08E7D24C
:1012EF00B0D2B112161530B010D3ED9400EC9400BB
:0E12FF004007ED1D70F01C80EDC2B102161507
:02138000AE07B6
:10138200EE54F044084DFBEEC454F044084DFA12FA
:1013920012CAEB4404FF1212CFAF031212CFEA4477
:0D13A20004FF1212CFAF021212CF0215C2CB
:0F15F7001212C8E4FF1215BA7F027E00021473AD
:0F1606001212C87F401215BA7F027E00021473C1
:101551007F327E001214737F381215F77F0C12153B
:0D156100F77F011215F77F057E000214735D
:10144E008B2C8A2D892EAB2CAA2DA92E120C526014
:10145E0013052EE52E7002052D14F9120C52FF12F3
:05146E00160680E222D9
:02116A008F2CC8
:10116C00E50ED39409400122AF0E050EEF75F00D7C
:10117C00A42440F582E43406AF82F52D8F2EC001F5
:10118C00A907A801FC7D01D001120D37E52E240B17
:10119C00F582E4352DF583E52CF0E52E240CF58253
:0D11AC00E4352DF58374FFF0E52CF460248C
:1011B900E52C75F00DA42440F582E43406AF82F5E0
:1011C9002F8F30E50E14FFE582240CF582E4352FCC
:0411D900F583EFF0BB
:1011DD00E52E240AF582E4352DF58374FFF0C3E581
:0411ED000E9401FF5C
:0111F10022DB
:060F91008B2C8A2D892E35
:100F9700EF75F00DA42440F582E43406AD82FCEF32
:100FA700F46007E512D3946340037FFF2275F010C6
:100FB700E512A42400F582E5F03400AF82FEED24AB
:100FC7000AF582E43CF583E0FBEF240EF582E43E6C
:100FD700F583EBF08F828E83E582240FF582E4356B
:100FE70083F58374FFF0ED240AF582E43CF583E092
:040FF700FBF4602384
:100FFB0075F010EBA42400F582E5F03400AB82F51C
:10100B002F8B30F583E582240FF582E43583F5834E
:03101B00E512F0EB
:10101E00ED240AF582E43CF583E512F00512AA06EA
:10102E00A907A801AC027D01AB2CAA2DA92E120D89
:07103E0037C3E5129401FF26
:011045002288
:10127900EFF4604AEBD394035044EF75F00DA424C6
:1012890040F582E43406F583E582240AF582E435E3
:1012990083F583E0FCF4602675F010ECA42400F5D6
:1012A90082E5F03400F583E582240AF582E435838A
:0E12B900F583E5822BF582E43583F583EDF0B5
:0112C7002204
:10151300AE07BEFF037FFF22EE75F00DA4244BF54B
:0F15230082E43406F583E0FFF4600122AF062274
:10153200AE07BEFF037FFF22EE75F00DA4244CF52B
:0F15420082E43406F583E0FFF4600122AF062255
:1015D100BFFF037FFF22EF75F00DA4244AF582E4DB
:0715E1003406F583E0FF2250
:10149300AE07BEFF037FFF2275F010EEA4240EF506
:1014A30082E5F03400F583E0FFF4600122AF062209
:1014B300AE07BEFF037FFF2275F010EEA4240FF5E5
:1014C30082E5F03400F583E0FFF4600122AF0622E9
:10156E00BFFF077BFF7A1379D822EF75F00DA42405
:0A157E0040F9740635F0FA7B0122F3
:10158800BFFF077BFF7A1379E222EF75F010A424DE
:0A15980000F9740035F0FA7B01221F
:1013AF00EFF46006EDD3940340037F002275F01035
:1013BF00EFA4240AF582E5F03400F583E5822DF5DC
:0913CF0082E43583F583E0FF227E
:1015A200BFFF04E4FEFF2275F010EFA4240AF582C7
:0815B200E5F03400AF82FE22D7
:1014D300E4FDFCC3ED9FEC9E5015E4FBFA0BBB004F
:0F14E300010ABA01F8BB7EF50DBD00010C80E4D3
:0114F20022D7
:1011F20075900FE590C3940F507A7F647E001214AD
:10120200D3E590C3940F506C7590EF2090037F410B
:10121200222091037F45222092037F4922209303BB
:101222007F4D227590DF2090037F42222091037F21
:1012320046222092037F4A222093037F4E227590FA
:10124200BF2090037F43222091037F4722209203F5
:101252007F4B222093037F4F2275907F2090037F44
:1012620044222091037F48222092037F4C22209324
:07127200037F50227F0022E0
:101428007F011215F77F027E001214737F80121558
:10143800F7AF1312156E12144E7FC01215F7AF11C5
:0614480012158802144E8B
:10130D00E511F4603BE4FEAD06AF111213AF740AA4
:10131D002EF8A6070EBE04EFC2A8C28CC28E758928
:10132D0021D20DE4F515F509F50F758CB9758AB057
:10133D00758DE6758BE6D20CC28DC28FD28ED28C96
:01134D00227D
:03000300021046A2
:10104600C0E0C0D075D000C000C006C007200A0AA4
:10105600758CBB758AA4D28C8073C28CC28EE51047
:10106600D39403400CC20AD20E7510007516008088
:101076005C758DEE758B3A758CF2758A54300E045C
:10108600C20E8039300B19740A2510F8C000E6FF2D
:10109600AE16A8067401088002C333D8FC4F801828
:1010A600740A2510F8C000E6FFAE16A806740108FB
:1010B6008002C333D8FCF45FD000F60516E516B4FB
:1010C60008057516000510C20BD28CD28ED007D03B
:0810D60006D000D0D0D0E032BA
:03000B00020ED111
:100ED100C0E0C0D075D000C000C006C007200D140E
:100EE100200A0A20B207D20AC28C020F86C28CD213
:100EF1000B020F86C28CE515700DC20C758CDD7569
:100F01008A98751501807CE51564016005E515B4C5
:100F11000221E50FD39403400DD20C758CFB758A29
:100F2100BB751503805DD20C758CFB758ABB75157D
:100F3100048050E51564047036C20C740A250FF85C
:100F4100E6FFAE09A806088002C313D8FC30E0080A
:100F5100758CF2758AD18006758CFB758ABB050983
:100F6100E509B40805750900050F7515028014E53A
:100F710015B4030FC28EC2B4758911C289D2A8C239
:100F81000D8002D28CD007D006D000D0D0D0E03274
:03001B000214F3D9
:1014F300C0D0200D10C20AD20E751000751600C29E
:101503008CC28E8008B20FA20C820F92B4D0D0325C
:100DC90078227C007D007BFF7A1379F77E007F0A09
:100DD900120C2C758911D288D2A8D2A9D2ABD2AF64
:100DE900C2B41215511211F2EF24BFB4070050F525
:100DF900900E0775F003A4C58325F0C58373020E11
:100E09001C020E4C020E95020E9B020EA9020EB791
:100E1900020EC4752FFF7530137531E9E50E2401F3
:100E2900F533E433F5327B007A00792212085C7BD2
:100E3900007A007922AF0812116A8F08850813AF6A
:100E4900138056E513F4609D752FFF7530137531C6
:100E5900F0E5122401F533E433F5327B007A0079A9
:100E69002212085C7B007A007922AF13120F918F4E
:100E790011E4FA740A2AF8E6FDAB02AF13121279EB
:100E8900740A2AF8E4F60ABA04E9802912130D0251
:100E99000DEEAF131215328F131215D18F11801564
:100EA900AF131215138F131215D18F118007AF11BC
:100EB9001214B38F11121428020DEEAF11121493EC
:080EC9008F11121428020DEE36
:1010EA00020DC9E493A3F8E493A34003F68001F246
:1010FA0008DFF48029E493A3F85407240CC8C33307
:10110A00C4540F4420C8834004F456800146F6DFD5
:10111A00E4800B010204081020408090134EE47E04
:10112A00019360BCA3FF543F30E509541FFEE493CA
:10113A00A360010ECF54C025E060A840B8E493A391
:10114A00FAE493A3F8E493A3C8C582C8CAC583CABC
:10115A00F0A3C8C582C8CAC583CADFE9DEE780BE74
:01137F00006D
:100B5C00E709F608DFFA8046E709F208DFFA803E7B
:100B6C0088828C83E709F0A3DFFA8032E309F60868
:100B7C00DFFA8078E309F208DFFA807088828C83D0
:100B8C00E309F0A3DFFA806489828A83E0A3F60884
:100B9C00DFFA805889828A83E0A3F208DFFA804C5E
:100BAC0080D280FA80C680D4806980F28033801035
:100BBC0080A680EA809A80A880DA80E280CA80339E
:100BCC0089828A83ECFAE493A3C8C582C8CCC58316
:100BDC00CCF0A3C8C582C8CCC583CCDFE9DEE780E6
:100BEC000D89828A83E493A3F608DFF9ECFAA9F065
:100BFC00EDFB2289828A83ECFAE0A3C8C582C8CCBB
:100C0C00C583CCF0A3C8C582C8CCC583CCDFEADED3
:100C1C00E880DB89828A83E493A3F208DFF980CC35
:100C2C0088F0EF60010E4E60C388F0ED2402B4042E
:100C3C000050B9F582EB2402B4040050AF232345D5
:060C4C008223900BAC7343
:100C5200BB010689828A83E0225002E722BBFE02A0
:090C6200E32289828A83E49322D3
:10080000E53B242FF8E6053B22782C300702782FB1
:10081000E475F001120D93020C522000EB7F2ED2F2
:10082000008018EF540F2490D43440D4FF30040BD0
:10083000EF24BFB41A0050032461FFE53C600215A9
:100840003C053FE53F7002053E30070D782CE4750E
:10085000F001120D93EF020D810214017403D2070F
:100860008003E4C207F53B8B2C8A2D892EE4F53CEE
:10087000F53EF53FE53C60077F2012083B80F575AB
:100880003DFFC201C200C202C203C205C206C208C5
:10089000120809FF700D3007057F0012084CAF3FAA
:1008A000AE3E22B4255FC2D5C204120809FF24D08F
:1008B000B40A00501A75F00A783C30D50508B6FF26
:1008C0000106C6A426F620D5047002D20380D924DE
:1008D000CFB41A00EF5004C2E5D204020A4CD20190
:1008E00080C6D20080C0D20280BCD2D580BAD205E8
:1008F00080B47F2012083B2002077401B53C004001
:10090000F1120800FF12083B020874D208D20680D8
:1009100095120800FB120800FA120800F94A4B7001
:1009200006791D7A0B7BFF20022EE53C602A7E00B3
:100930008E82758300120D5460060EEE653D70F0D8
:10094000C2D5EBC0E0EAC0E0E9C0E0EE120A93D005
:10095000E0F9D0E0FAD0E0FB120C52FF60AAEBC045
:10096000E0EAC0E0E9C0E012083BD0E02401F9D0A1
:10097000E03400FAD0E0FBE53D0460DCD53DD980F1
:10098000877BFF7A0A798FD202809C791080027966
:1009900008C206C2088008D2D5790A8004790AC242
:1009A000D5E53D047002F53DE4FAFDFEFF120800B6
:1009B000FC7B08200113120800FD7B1030000A1296
:1009C0000800FE120800FF7B20EC3382D592D55040
:1009D00013C3E43000069FFFE49EFEE42001039D64
:1009E000FDE49CFCE4CBF8C201EC700CCFCECDCC86
:1009F000E824F8F870F38017C3EF33FFEE33FEED11
:100A000033FDEC33FCEB33FB994002FB0FD8E9EBF1
:100A1000300105F8D0E0C448B201C0E00AEC4D4E08
:100A20004F78207B0070C2EAB53D0040BCC0E012A8
:100A30000A95D0F0D0E0200104C4C0E0C4B201C0E7
:100A4000F0120824D0F0D5F0EB020874120DA309BF
:100A50001153098B5808E24C08DE42098F4F099761
:0F0A60004409974908F743099D550981460981C3
:100A6F00450981470B3D5008E62D08EA2E090D2B4D
:100A7F0008EE23090B200B262A08A64800000905BB
:100A8F003F3F3F00790AA2D5200314300509B91062
:100A9F00020404B9080104A2D52006025001042063
:100AAF0002689202B53C005034C0E07F2030031939
:100ABF007F30A20272067205500F120AECC202C2F8
:100ACF0006C205C2087F30800F300503E9C0E0126F
:100ADF00083B300503D0E0F9D0E0B53CCC3005172A
:100AEF007F30B9100C12083B7F583004077F788095
:100AFF0003B9080312083B3002057F2D02083B7F24
:100B0F00202008F87F2B2006F322920280CF286E38
:100B1F00756C6C2900D2011208003001F8C20178FF
:100B2F003C30D50108F60208A62D5043495812084B
:100B3F00002403B405004001E4900B389312082CF5
:0D0B4F00743A12082CD203753C0402098B85
:100C6B00E709F60870FA8046E709F20870FA803E49
:100C7B0088828C83E709F0A370FA807EE309F6087B
:100C8B0070FA8076E309F20870FA806E88828C83A2
:100C9B00E309F0A370FA806289828A83E0A3F608E5
:100CAB0070FA805689828A83E0A3F20870FA804A30
:100CBB0080D280FA80C680D4806580F2803180102B
:100CCB0080A680EA809A80A880DA80E280CA803190
:100CDB0089828A83ECFAE493A3C8C582C8CCC58306
:100CEB00CCF0A3C8C582C8CCC583CC70E9800D8974
:100CFB00828A83E493A3F60870F9ECFAA9F0EDFB72
:100D0B002289828A83ECFAE0A3C8C582C8CCC5834A
:100D1B00CCF0A3C8C582C8CCC583CC70EA80DD8972
:100D2B00828A83E493A3F20870F980CE88F0ED24D5
:100D3B0002B4040050C4F582EB2402B4040050BA90
:090D4B002323458223900CBB73A5
:100D5400BB010CE58229F582E5833AF583E0225054
:100D640006E92582F8E622BBFE06E92582F8E2229E
:0D0D7400E58229F582E5833AF583E49322B8
:100D8100BB010689828A83F0225002F722BBFE0151
:020D9100F3224B
:100D9300FAE6FB0808E6F925F0F618E6CA3AF62261
:100DA300D083D082F8E4937012740193700DA3A3DF
:100DB30093F8740193F5828883E4737402936860F3
:060DC300EFA3A3A380DFF3
:10140100EFB40A07740D12140C740A309811A899DC
:10141100B8130CC2983098FDA899C298B811F6304B
:0714210099FDC299F5992223
:00000001FF
